{
  "contractName": "PlacasContract",
  "abi": [
    {
      "inputs": [
        {
          "internalType": "uint256",
          "name": "_id_placa",
          "type": "uint256"
        },
        {
          "internalType": "uint256",
          "name": "_datos_co2",
          "type": "uint256"
        },
        {
          "internalType": "string",
          "name": "_hash_bd",
          "type": "string"
        }
      ],
      "payable": false,
      "stateMutability": "nonpayable",
      "type": "constructor"
    },
    {
      "constant": false,
      "inputs": [
        {
          "internalType": "uint256",
          "name": "_id_placa",
          "type": "uint256"
        },
        {
          "internalType": "uint256",
          "name": "_datos_co2",
          "type": "uint256"
        },
        {
          "internalType": "string",
          "name": "_hash_bd",
          "type": "string"
        }
      ],
      "name": "set_datos",
      "outputs": [],
      "payable": false,
      "stateMutability": "nonpayable",
      "type": "function"
    },
    {
      "constant": true,
      "inputs": [],
      "name": "getIdPlaca",
      "outputs": [
        {
          "internalType": "uint256",
          "name": "",
          "type": "uint256"
        }
      ],
      "payable": false,
      "stateMutability": "view",
      "type": "function"
    },
    {
      "constant": true,
      "inputs": [],
      "name": "getHashBd",
      "outputs": [
        {
          "internalType": "string",
          "name": "",
          "type": "string"
        }
      ],
      "payable": false,
      "stateMutability": "view",
      "type": "function"
    },
    {
      "constant": true,
      "inputs": [],
      "name": "getDatosCo2",
      "outputs": [
        {
          "internalType": "uint256",
          "name": "",
          "type": "uint256"
        }
      ],
      "payable": false,
      "stateMutability": "view",
      "type": "function"
    }
  ],
  "bytecode": "0x608060405234801561001057600080fd5b506040516106173803806106178339818101604052606081101561003357600080fd5b8101908080519060200190929190805190602001909291908051604051939291908464010000000082111561006757600080fd5b8382019150602082018581111561007d57600080fd5b825186600182028301116401000000008211171561009a57600080fd5b8083526020830192505050908051906020019080838360005b838110156100ce5780820151818401526020810190506100b3565b50505050905090810190601f1680156100fb5780820380516001836020036101000a031916815260200191505b5060405250505033600360006101000a81548173ffffffffffffffffffffffffffffffffffffffff021916908373ffffffffffffffffffffffffffffffffffffffff16021790555082600181905550816002819055508060009080519060200190610167929190610170565b50505050610215565b828054600181600116156101000203166002900490600052602060002090601f016020900481019282601f106101b157805160ff19168380011785556101df565b828001600101855582156101df579182015b828111156101de5782518255916020019190600101906101c3565b5b5090506101ec91906101f0565b5090565b61021291905b8082111561020e5760008160009055506001016101f6565b5090565b90565b6103f3806102246000396000f3fe608060405234801561001057600080fd5b506004361061004c5760003560e01c806367ba6bba1461005157806368b241d51461012057806384362e471461013e578063f3392a961461015c575b600080fd5b61011e6004803603606081101561006757600080fd5b8101908080359060200190929190803590602001909291908035906020019064010000000081111561009857600080fd5b8201836020820111156100aa57600080fd5b803590602001918460018302840111640100000000831117156100cc57600080fd5b91908080601f016020809104026020016040519081016040528093929190818152602001838380828437600081840152601f19601f8201169050808301925050505050505091929192905050506101df565b005b610128610263565b6040518082815260200191505060405180910390f35b61014661026d565b6040518082815260200191505060405180910390f35b610164610277565b6040518080602001828103825283818151815260200191508051906020019080838360005b838110156101a4578082015181840152602081019050610189565b50505050905090810190601f1680156101d15780820380516001836020036101000a031916815260200191505b509250505060405180910390f35b600360009054906101000a900473ffffffffffffffffffffffffffffffffffffffff1673ffffffffffffffffffffffffffffffffffffffff163373ffffffffffffffffffffffffffffffffffffffff161461023957600080fd5b8260018190555081600281905550806000908051906020019061025d929190610319565b50505050565b6000600254905090565b6000600154905090565b606060008054600181600116156101000203166002900480601f01602080910402602001604051908101604052809291908181526020018280546001816001161561010002031660029004801561030f5780601f106102e45761010080835404028352916020019161030f565b820191906000526020600020905b8154815290600101906020018083116102f257829003601f168201915b5050505050905090565b828054600181600116156101000203166002900490600052602060002090601f016020900481019282601f1061035a57805160ff1916838001178555610388565b82800160010185558215610388579182015b8281111561038757825182559160200191906001019061036c565b5b5090506103959190610399565b5090565b6103bb91905b808211156103b757600081600090555060010161039f565b5090565b9056fea265627a7a72315820bb602b21296cf21703b69d1be370c0a25ab16c9dd10dc3193a02a35762dc331164736f6c63430005100032",
  "source": "// SPDX-License-Identifier: MIT\npragma solidity >=0.4.21 <0.7.0;\n\ncontract PlacasContract {\n\n    string hash_bd;\n    uint id_placa;\n    uint datos_co2;\n    address creador;\n\n    constructor(uint _id_placa, uint _datos_co2, string memory _hash_bd) public{\n        creador = msg.sender;\n        id_placa = _id_placa;\n        datos_co2 = _datos_co2;\n        hash_bd = _hash_bd;\n    }\n    \n    modifier soloCreador(){\n        require(msg.sender == creador);\n        _;\n    }\n    \n     function set_datos(uint _id_placa, uint _datos_co2, string memory _hash_bd) public soloCreador {\n        id_placa = _id_placa;\n        datos_co2 = _datos_co2;\n        hash_bd = _hash_bd;\n    }\n    \n    function getIdPlaca() public view returns (uint) {\n        return id_placa;\n    }\n    \n    function getHashBd() public view returns (string memory) {\n        return hash_bd;\n    }\n    \n     function getDatosCo2() public view returns (uint) {\n        return datos_co2;\n    }\n\n}\n",
  "sourcePath": "/home/gustavo/Documentos/Universidad/FIB/4to/PTI/CO2METER/SmartContracts/contracts/PlacasContract.sol",
  "compiler": {
    "name": "solc",
    "version": "0.5.16+commit.9c3226ce.Emscripten.clang"
  },
  "schemaVersion": "3.4.3",
  "updatedAt": "2021-12-11T16:03:14.413Z",
  "networkType": "ethereum",
  "devdoc": {
    "methods": {}
  },
  "userdoc": {
    "methods": {}
  }
}