{
  "contractName": "PlacasContract",
  "abi": [
    {
      "inputs": [
        {
          "internalType": "uint256",
          "name": "_id_placa",
          "type": "uint256"
        },
        {
          "internalType": "uint256",
          "name": "_datos_co2",
          "type": "uint256"
        },
        {
          "internalType": "string",
          "name": "_hash_bd",
          "type": "string"
        }
      ],
      "payable": false,
      "stateMutability": "nonpayable",
      "type": "constructor"
    },
    {
      "constant": false,
      "inputs": [
        {
          "internalType": "uint256",
          "name": "_datos_co2",
          "type": "uint256"
        },
        {
          "internalType": "string",
          "name": "_hash_bd",
          "type": "string"
        }
      ],
      "name": "set_datos",
      "outputs": [],
      "payable": false,
      "stateMutability": "nonpayable",
      "type": "function"
    },
    {
      "constant": true,
      "inputs": [],
      "name": "getIdPlaca",
      "outputs": [
        {
          "internalType": "uint256",
          "name": "",
          "type": "uint256"
        }
      ],
      "payable": false,
      "stateMutability": "view",
      "type": "function"
    },
    {
      "constant": true,
      "inputs": [],
      "name": "getHashBd",
      "outputs": [
        {
          "internalType": "string",
          "name": "",
          "type": "string"
        }
      ],
      "payable": false,
      "stateMutability": "view",
      "type": "function"
    },
    {
      "constant": true,
      "inputs": [],
      "name": "getDatosCo2",
      "outputs": [
        {
          "internalType": "uint256",
          "name": "",
          "type": "uint256"
        }
      ],
      "payable": false,
      "stateMutability": "view",
      "type": "function"
    }
  ],
  "bytecode": "0x608060405234801561001057600080fd5b506040516106053803806106058339818101604052606081101561003357600080fd5b8101908080519060200190929190805190602001909291908051604051939291908464010000000082111561006757600080fd5b8382019150602082018581111561007d57600080fd5b825186600182028301116401000000008211171561009a57600080fd5b8083526020830192505050908051906020019080838360005b838110156100ce5780820151818401526020810190506100b3565b50505050905090810190601f1680156100fb5780820380516001836020036101000a031916815260200191505b5060405250505033600360006101000a81548173ffffffffffffffffffffffffffffffffffffffff021916908373ffffffffffffffffffffffffffffffffffffffff16021790555082600181905550816002819055508060009080519060200190610167929190610170565b50505050610215565b828054600181600116156101000203166002900490600052602060002090601f016020900481019282601f106101b157805160ff19168380011785556101df565b828001600101855582156101df579182015b828111156101de5782518255916020019190600101906101c3565b5b5090506101ec91906101f0565b5090565b61021291905b8082111561020e5760008160009055506001016101f6565b5090565b90565b6103e1806102246000396000f3fe608060405234801561001057600080fd5b506004361061004c5760003560e01c806327e75b541461005157806368b241d51461011657806384362e4714610134578063f3392a9614610152575b600080fd5b6101146004803603604081101561006757600080fd5b81019080803590602001909291908035906020019064010000000081111561008e57600080fd5b8201836020820111156100a057600080fd5b803590602001918460018302840111640100000000831117156100c257600080fd5b91908080601f016020809104026020016040519081016040528093929190818152602001838380828437600081840152601f19601f8201169050808301925050505050505091929192905050506101d5565b005b61011e610251565b6040518082815260200191505060405180910390f35b61013c61025b565b6040518082815260200191505060405180910390f35b61015a610265565b6040518080602001828103825283818151815260200191508051906020019080838360005b8381101561019a57808201518184015260208101905061017f565b50505050905090810190601f1680156101c75780820380516001836020036101000a031916815260200191505b509250505060405180910390f35b600360009054906101000a900473ffffffffffffffffffffffffffffffffffffffff1673ffffffffffffffffffffffffffffffffffffffff163373ffffffffffffffffffffffffffffffffffffffff161461022f57600080fd5b81600281905550806000908051906020019061024c929190610307565b505050565b6000600254905090565b6000600154905090565b606060008054600181600116156101000203166002900480601f0160208091040260200160405190810160405280929190818152602001828054600181600116156101000203166002900480156102fd5780601f106102d2576101008083540402835291602001916102fd565b820191906000526020600020905b8154815290600101906020018083116102e057829003601f168201915b5050505050905090565b828054600181600116156101000203166002900490600052602060002090601f016020900481019282601f1061034857805160ff1916838001178555610376565b82800160010185558215610376579182015b8281111561037557825182559160200191906001019061035a565b5b5090506103839190610387565b5090565b6103a991905b808211156103a557600081600090555060010161038d565b5090565b9056fea265627a7a72315820ce907b4dfae31c544df72b91e31bb0db2905febdf1b24f239147fb917ebe325764736f6c63430005100032",
  "source": "// SPDX-License-Identifier: MIT\npragma solidity >=0.4.21 <0.7.0;\n\ncontract PlacasContract {\n\n    string hash_bd;\n    uint id_placa;\n    uint datos_co2;\n    address creador;\n\n    constructor(uint _id_placa, uint _datos_co2, string memory _hash_bd) public{\n        creador = msg.sender;\n        id_placa = _id_placa;\n        datos_co2 = _datos_co2;\n        hash_bd = _hash_bd;\n    }\n    \n    modifier soloCreador(){\n        require(msg.sender == creador);\n        _;\n    }\n    \n     function set_datos(uint _datos_co2, string memory _hash_bd) public soloCreador {\n        datos_co2 = _datos_co2;\n        hash_bd = _hash_bd;\n    }\n    \n    function getIdPlaca() public view returns (uint) {\n        return id_placa;\n    }\n    \n    function getHashBd() public view returns (string memory) {\n        return hash_bd;\n    }\n    \n     function getDatosCo2() public view returns (uint) {\n        return datos_co2;\n    }\n\n}\n",
  "sourcePath": "/home/gustavo/Documentos/Universidad/FIB/4to/PTI/CO2METER/SmartContracts/contracts/PlacasContract.sol",
  "compiler": {
    "name": "solc",
    "version": "0.5.16+commit.9c3226ce.Emscripten.clang"
  },
  "schemaVersion": "3.4.3",
  "updatedAt": "2021-12-12T01:08:06.122Z",
  "networkType": "ethereum",
  "devdoc": {
    "methods": {}
  },
  "userdoc": {
    "methods": {}
  }
}