{
  "contractName": "PlacasContract",
  "abi": [
    {
      "inputs": [],
      "payable": false,
      "stateMutability": "nonpayable",
      "type": "constructor"
    },
    {
      "constant": false,
      "inputs": [
        {
          "internalType": "uint256",
          "name": "_id_placa",
          "type": "uint256"
        },
        {
          "internalType": "uint256",
          "name": "_datos_co2",
          "type": "uint256"
        },
        {
          "internalType": "bytes32",
          "name": "_hash_bd",
          "type": "bytes32"
        }
      ],
      "name": "set_datos",
      "outputs": [],
      "payable": false,
      "stateMutability": "nonpayable",
      "type": "function"
    },
    {
      "constant": true,
      "inputs": [],
      "name": "getIdPlaca",
      "outputs": [
        {
          "internalType": "uint256",
          "name": "",
          "type": "uint256"
        }
      ],
      "payable": false,
      "stateMutability": "view",
      "type": "function"
    },
    {
      "constant": true,
      "inputs": [],
      "name": "getHashBd",
      "outputs": [
        {
          "internalType": "bytes32",
          "name": "",
          "type": "bytes32"
        }
      ],
      "payable": false,
      "stateMutability": "view",
      "type": "function"
    },
    {
      "constant": true,
      "inputs": [],
      "name": "getDatosCo2",
      "outputs": [
        {
          "internalType": "uint256",
          "name": "",
          "type": "uint256"
        }
      ],
      "payable": false,
      "stateMutability": "view",
      "type": "function"
    }
  ],
  "bytecode": "0x608060405234801561001057600080fd5b5033600360006101000a81548173ffffffffffffffffffffffffffffffffffffffff021916908373ffffffffffffffffffffffffffffffffffffffff1602179055506101b3806100616000396000f3fe608060405234801561001057600080fd5b506004361061004c5760003560e01c80632ca660631461005157806368b241d51461009357806384362e47146100b1578063f3392a96146100cf575b600080fd5b6100916004803603606081101561006757600080fd5b810190808035906020019092919080359060200190929190803590602001909291905050506100ed565b005b61009b610161565b6040518082815260200191505060405180910390f35b6100b961016b565b6040518082815260200191505060405180910390f35b6100d7610175565b6040518082815260200191505060405180910390f35b600360009054906101000a900473ffffffffffffffffffffffffffffffffffffffff1673ffffffffffffffffffffffffffffffffffffffff163373ffffffffffffffffffffffffffffffffffffffff161461014757600080fd5b826001819055508160028190555080600081905550505050565b6000600254905090565b6000600154905090565b6000805490509056fea265627a7a723158204b378cacecda53c10faf58eb1622afe82279664992f1991269593c3faa12bf5964736f6c63430005100032",
  "source": "// SPDX-License-Identifier: MIT\npragma solidity >=0.4.21 <0.7.0;\n\ncontract PlacasContract {\n\n    bytes32 hash_bd;\n    uint id_placa;\n    uint datos_co2;\n    address creador;\n\n    constructor() public{\n        creador = msg.sender;\n    }\n    \n    modifier soloCreador(){\n        require(msg.sender == creador);\n        _;\n    }\n    \n     function set_datos(uint _id_placa, uint _datos_co2, bytes32 _hash_bd) public soloCreador {\n        id_placa = _id_placa;\n        datos_co2 = _datos_co2;\n        hash_bd = _hash_bd;\n    }\n    \n    function getIdPlaca() public view returns (uint) {\n        return id_placa;\n    }\n    \n    function getHashBd() public view returns (bytes32) {\n        return hash_bd;\n    }\n    \n     function getDatosCo2() public view returns (uint) {\n        return datos_co2;\n    }\n\n}\n",
  "sourcePath": "/home/gustavo/Documentos/Universidad/FIB/4to/PTI/CO2METER/SmartContracts/contracts/PlacasContract.sol",
  "compiler": {
    "name": "solc",
    "version": "0.5.16+commit.9c3226ce.Emscripten.clang"
  },
  "schemaVersion": "3.4.3",
  "updatedAt": "2021-12-10T18:56:56.562Z",
  "networkType": "ethereum",
  "devdoc": {
    "methods": {}
  },
  "userdoc": {
    "methods": {}
  }
}